{
  "contractName": "SongRegistry",
  "abi": [
    {
      "constant": true,
      "inputs": [],
      "name": "name",
      "outputs": [
        {
          "name": "",
          "type": "string"
        }
      ],
      "payable": false,
      "stateMutability": "view",
      "type": "function",
      "signature": "0x06fdde03"
    },
    {
      "constant": true,
      "inputs": [
        {
          "name": "",
          "type": "uint256"
        }
      ],
      "name": "songs",
      "outputs": [
        {
          "name": "id",
          "type": "uint256"
        },
        {
          "name": "title",
          "type": "string"
        },
        {
          "name": "price",
          "type": "uint256"
        },
        {
          "name": "owner",
          "type": "address"
        },
        {
          "name": "purchased",
          "type": "bool"
        }
      ],
      "payable": false,
      "stateMutability": "view",
      "type": "function",
      "signature": "0x304cff30"
    },
    {
      "constant": true,
      "inputs": [],
      "name": "songCount",
      "outputs": [
        {
          "name": "",
          "type": "uint256"
        }
      ],
      "payable": false,
      "stateMutability": "view",
      "type": "function",
      "signature": "0x931a889b"
    },
    {
      "constant": true,
      "inputs": [
        {
          "name": "",
          "type": "uint256"
        }
      ],
      "name": "Songs",
      "outputs": [
        {
          "name": "id",
          "type": "uint256"
        },
        {
          "name": "title",
          "type": "string"
        },
        {
          "name": "price",
          "type": "uint256"
        },
        {
          "name": "owner",
          "type": "address"
        },
        {
          "name": "purchased",
          "type": "bool"
        }
      ],
      "payable": false,
      "stateMutability": "view",
      "type": "function",
      "signature": "0xbeaf69b5"
    },
    {
      "inputs": [],
      "payable": false,
      "stateMutability": "nonpayable",
      "type": "constructor",
      "signature": "constructor"
    },
    {
      "anonymous": false,
      "inputs": [
        {
          "indexed": false,
          "name": "id",
          "type": "uint256"
        },
        {
          "indexed": false,
          "name": "title",
          "type": "string"
        },
        {
          "indexed": false,
          "name": "price",
          "type": "uint256"
        },
        {
          "indexed": false,
          "name": "owner",
          "type": "address"
        },
        {
          "indexed": false,
          "name": "purchased",
          "type": "bool"
        }
      ],
      "name": "SongRegistered",
      "type": "event",
      "signature": "0x400c6ccde72ea009de5c531de0bac2f79d74a557583271074603fb3b16956585"
    },
    {
      "constant": false,
      "inputs": [
        {
          "name": "_title",
          "type": "string"
        },
        {
          "name": "_price",
          "type": "uint256"
        }
      ],
      "name": "registerSong",
      "outputs": [],
      "payable": false,
      "stateMutability": "nonpayable",
      "type": "function",
      "signature": "0xdedbe306"
    },
    {
      "constant": true,
      "inputs": [],
      "name": "getNumberOfSongs",
      "outputs": [
        {
          "name": "",
          "type": "uint256"
        }
      ],
      "payable": false,
      "stateMutability": "view",
      "type": "function",
      "signature": "0xa8ec42d8"
    }
  ],
  "bytecode": "0x6080604052600060025534801561001557600080fd5b506040805190810160405280601581526020017f4166726f6265617473204d757369632053746f7265000000000000000000000081525060009080519060200190610061929190610067565b5061010c565b828054600181600116156101000203166002900490600052602060002090601f016020900481019282601f106100a857805160ff19168380011785556100d6565b828001600101855582156100d6579182015b828111156100d55782518255916020019190600101906100ba565b5b5090506100e391906100e7565b5090565b61010991905b808211156101055760008160009055506001016100ed565b5090565b90565b610bb08061011b6000396000f3fe608060405260043610610078576000357c0100000000000000000000000000000000000000000000000000000000900463ffffffff16806306fdde031461007d578063304cff301461010d578063931a889b1461020d578063a8ec42d814610238578063beaf69b514610263578063dedbe30614610363575b600080fd5b34801561008957600080fd5b50610092610435565b6040518080602001828103825283818151815260200191508051906020019080838360005b838110156100d25780820151818401526020810190506100b7565b50505050905090810190601f1680156100ff5780820380516001836020036101000a031916815260200191505b509250505060405180910390f35b34801561011957600080fd5b506101466004803603602081101561013057600080fd5b81019080803590602001909291905050506104d3565b60405180868152602001806020018581526020018473ffffffffffffffffffffffffffffffffffffffff1673ffffffffffffffffffffffffffffffffffffffff16815260200183151515158152602001828103825286818151815260200191508051906020019080838360005b838110156101ce5780820151818401526020810190506101b3565b50505050905090810190601f1680156101fb5780820380516001836020036101000a031916815260200191505b50965050505050505060405180910390f35b34801561021957600080fd5b506102226105ce565b6040518082815260200191505060405180910390f35b34801561024457600080fd5b5061024d6105d4565b6040518082815260200191505060405180910390f35b34801561026f57600080fd5b5061029c6004803603602081101561028657600080fd5b81019080803590602001909291905050506105e1565b60405180868152602001806020018581526020018473ffffffffffffffffffffffffffffffffffffffff1673ffffffffffffffffffffffffffffffffffffffff16815260200183151515158152602001828103825286818151815260200191508051906020019080838360005b83811015610324578082015181840152602081019050610309565b50505050905090810190601f1680156103515780820380516001836020036101000a031916815260200191505b50965050505050505060405180910390f35b34801561036f57600080fd5b506104336004803603604081101561038657600080fd5b81019080803590602001906401000000008111156103a357600080fd5b8201836020820111156103b557600080fd5b803590602001918460018302840111640100000000831117156103d757600080fd5b91908080601f016020809104026020016040519081016040528093929190818152602001838380828437600081840152601f19601f820116905080830192505050505050509192919290803590602001909291905050506106eb565b005b60008054600181600116156101000203166002900480601f0160208091040260200160405190810160405280929190818152602001828054600181600116156101000203166002900480156104cb5780601f106104a0576101008083540402835291602001916104cb565b820191906000526020600020905b8154815290600101906020018083116104ae57829003601f168201915b505050505081565b6001602052806000526040600020600091509050806000015490806001018054600181600116156101000203166002900480601f0160208091040260200160405190810160405280929190818152602001828054600181600116156101000203166002900480156105855780601f1061055a57610100808354040283529160200191610585565b820191906000526020600020905b81548152906001019060200180831161056857829003601f168201915b5050505050908060020154908060030160009054906101000a900473ffffffffffffffffffffffffffffffffffffffff16908060030160149054906101000a900460ff16905085565b60025481565b6000600380549050905090565b6003818154811015156105f057fe5b9060005260206000209060040201600091509050806000015490806001018054600181600116156101000203166002900480601f0160208091040260200160405190810160405280929190818152602001828054600181600116156101000203166002900480156106a25780601f10610677576101008083540402835291602001916106a2565b820191906000526020600020905b81548152906001019060200180831161068557829003601f168201915b5050505050908060020154908060030160009054906101000a900473ffffffffffffffffffffffffffffffffffffffff16908060030160149054906101000a900460ff16905085565b60008251111515610764576040517f08c379a00000000000000000000000000000000000000000000000000000000081526004018080602001828103825260138152602001807f496e76616c696420736f6e67207469746c652e0000000000000000000000000081525060200191505060405180910390fd5b6000811115156107dc576040517f08c379a00000000000000000000000000000000000000000000000000000000081526004018080602001828103825260138152602001807f496e76616c696420736f6e672070726963652e0000000000000000000000000081525060200191505060405180910390fd5b600260008154809291906001019190505550600360a06040519081016040528060025481526020018481526020018381526020013373ffffffffffffffffffffffffffffffffffffffff1681526020016000151581525090806001815401808255809150509060018203906000526020600020906004020160009091929091909150600082015181600001556020820151816001019080519060200190610884929190610adf565b506040820151816002015560608201518160030160006101000a81548173ffffffffffffffffffffffffffffffffffffffff021916908373ffffffffffffffffffffffffffffffffffffffff16021790555060808201518160030160146101000a81548160ff02191690831515021790555050505060a06040519081016040528060025481526020018381526020018281526020013373ffffffffffffffffffffffffffffffffffffffff16815260200160001515815250600160006002548152602001908152602001600020600082015181600001556020820151816001019080519060200190610977929190610adf565b506040820151816002015560608201518160030160006101000a81548173ffffffffffffffffffffffffffffffffffffffff021916908373ffffffffffffffffffffffffffffffffffffffff16021790555060808201518160030160146101000a81548160ff0219169083151502179055509050507f400c6ccde72ea009de5c531de0bac2f79d74a557583271074603fb3b16956585600254838333600060405180868152602001806020018581526020018473ffffffffffffffffffffffffffffffffffffffff1673ffffffffffffffffffffffffffffffffffffffff16815260200183151515158152602001828103825286818151815260200191508051906020019080838360005b83811015610a9d578082015181840152602081019050610a82565b50505050905090810190601f168015610aca5780820380516001836020036101000a031916815260200191505b50965050505050505060405180910390a15050565b828054600181600116156101000203166002900490600052602060002090601f016020900481019282601f10610b2057805160ff1916838001178555610b4e565b82800160010185558215610b4e579182015b82811115610b4d578251825591602001919060010190610b32565b5b509050610b5b9190610b5f565b5090565b610b8191905b80821115610b7d576000816000905550600101610b65565b5090565b9056fea165627a7a72305820bc5f416266a570ed5db12bda4ec17f40765ef5d7cf4f0650d518346d802d9b320029",
  "source": "pragma solidity >=0.4.22 < 0.6.0;\n\ncontract SongRegistry {\n    string public name;\n\n     //store songs in mapping\n   mapping(uint => Song) public songs;\n\n   //keep track on number of songs \n   uint public songCount = 0;\n\n   //define the struct Song \n    struct Song {\n        uint id;\n        string title;\n        uint price;\n        address owner;\n        bool purchased;\n    }\n\n  \n\n   //event to be triggered when song is created\n    event SongRegistered(\n       uint id,\n       string title,\n       uint price,\n       address owner,\n       bool purchased\n    );\n\n   //store songs in array\n    Song[] public Songs;\n\n    constructor() public {\n        name = \"Afrobeats Music Store\";\n    }\n\n    //a function to register songs\n    function registerSong(string memory _title,uint _price) public {\n        //check if title is valid\n        require(bytes(_title).length > 0, \"Invalid song title.\");\n        //check if the price is valid\n        require(_price > 0, \"Invalid song price.\");\n        //increase song count\n        songCount ++;\n        //create song\n        Songs.push(Song(songCount,_title,_price,msg.sender,false));\n        songs[songCount] = Song(songCount,_title,_price,msg.sender,false);\n        emit SongRegistered(songCount,_title,_price,msg.sender,false);\n\n\n    }\n\n    function getNumberOfSongs() external view returns(uint) {\n    // return the length of the song array\n    return Songs.length;\n  }\n\n\n    \n\n}",
  "sourcePath": "/Users/kalubachikonde/Consensys/Project/ConsenSys-Academy-Blockchain-Developer-Program-Project/contracts/SongRegistry.sol",
  "compiler": {
    "name": "solc",
    "version": "0.5.0+commit.1d4f565a.Emscripten.clang"
  },
  "schemaVersion": "3.0.6",
  "updatedAt": "2020-01-14T23:57:11.700Z",
  "devdoc": {
    "methods": {}
  },
  "userdoc": {
    "methods": {}
  }
}