{
  "contractName": "SongRegistry",
  "abi": [
    {
      "constant": true,
      "inputs": [],
      "name": "name",
      "outputs": [
        {
          "name": "",
          "type": "string"
        }
      ],
      "payable": false,
      "stateMutability": "view",
      "type": "function",
      "signature": "0x06fdde03"
    },
    {
      "constant": true,
      "inputs": [
        {
          "name": "",
          "type": "uint256"
        }
      ],
      "name": "songs",
      "outputs": [
        {
          "name": "id",
          "type": "uint256"
        },
        {
          "name": "title",
          "type": "string"
        },
        {
          "name": "price",
          "type": "uint256"
        },
        {
          "name": "Owner",
          "type": "address"
        },
        {
          "name": "purchased",
          "type": "bool"
        }
      ],
      "payable": false,
      "stateMutability": "view",
      "type": "function",
      "signature": "0x304cff30"
    },
    {
      "constant": false,
      "inputs": [],
      "name": "renounceOwnership",
      "outputs": [
        {
          "name": "",
          "type": "uint256"
        }
      ],
      "payable": false,
      "stateMutability": "nonpayable",
      "type": "function",
      "signature": "0x715018a6"
    },
    {
      "constant": true,
      "inputs": [
        {
          "name": "",
          "type": "uint256"
        }
      ],
      "name": "owner",
      "outputs": [
        {
          "name": "",
          "type": "address"
        },
        {
          "name": "title",
          "type": "string"
        },
        {
          "name": "price",
          "type": "uint256"
        },
        {
          "name": "Owner",
          "type": "address"
        },
        {
          "name": "purchased",
          "type": "bool"
        }
      ],
      "payable": false,
      "stateMutability": "view",
      "type": "function",
      "signature": "0xa123c33e"
    },
    {
      "constant": true,
      "inputs": [
        {
          "name": "",
          "type": "uint256"
        }
      ],
      "name": "isOwner",
      "outputs": [
        {
          "name": "",
          "type": "bool"
        }
      ],
      "payable": false,
      "stateMutability": "view",
      "type": "function",
      "signature": "0x39c7639c"
    },
    {
      "inputs": [],
      "payable": false,
      "stateMutability": "view",
      "type": "function",
      "signature": "0x931a889b",
      "constant": true,
      "name": "songCount",
      "outputs": [
        {
          "name": "",
          "type": "uint256"
        }
      ]
    },
    {
      "anonymous": false,
      "inputs": [
        {
          "indexed": false,
          "name": "",
          "type": "uint256"
        },
        {
          "indexed": false,
          "name": "title",
          "type": "string"
        },
        {
          "indexed": false,
          "name": "price",
          "type": "uint256"
        },
        {
          "indexed": false,
          "name": "Owner",
          "type": "address"
        },
        {
          "indexed": false,
          "name": "purchased",
          "type": "bool"
        }
      ],
      "name": "Songs",
      "type": "function",
      "signature": "0xfdf8ef0d",
      "constant": true,
      "outputs": [
        {
          "name": "id",
          "type": "uint256"
        },
        {
          "name": "title",
          "type": "string"
        },
        {
          "name": "price",
          "type": "uint256"
        },
        {
          "name": "Owner",
          "type": "address"
        },
        {
          "name": "purchased",
          "type": "bool"
        }
      ],
      "payable": false,
      "stateMutability": "view"
    },
    {
      "anonymous": false,
      "inputs": [
        {
          "indexed": false,
          "name": "",
          "type": "uint256"
        },
        {
          "indexed": false,
          "name": "title",
          "type": "string"
        },
        {
          "indexed": false,
          "name": "price",
          "type": "uint256"
        },
        {
          "indexed": false,
          "name": "Owner",
          "type": "address"
        },
        {
          "indexed": false,
          "name": "purchased",
          "type": "bool"
        }
      ],
      "name": "buyers",
      "type": "function",
      "signature": "0x26b358c2",
      "constant": true,
      "outputs": [
        {
          "name": "",
          "type": "address"
        }
      ],
      "payable": false,
      "stateMutability": "view"
    },
    {
      "constant": false,
      "inputs": [
        {
          "name": "newOwner",
          "type": "address"
        },
        {
          "name": "_price",
          "type": "uint256"
        }
      ],
      "name": "transferOwnership",
      "outputs": [],
      "payable": false,
      "stateMutability": "nonpayable",
      "type": "function",
      "signature": "0x0a276680"
    },
    {
      "constant": true,
      "inputs": [],
      "name": "getNumberOfSongs",
      "outputs": [
        {
          "name": "",
          "type": "uint256"
        }
      ],
      "payable": false,
      "stateMutability": "nonpayable",
      "type": "constructor",
      "signature": "constructor"
    },
    {
      "constant": false,
      "inputs": [
        {
          "name": "id",
          "type": "uint256",
          "indexed": false
        },
        {
          "indexed": false,
          "name": "title",
          "type": "string"
        },
        {
          "indexed": false,
          "name": "price",
          "type": "uint256"
        },
        {
          "indexed": false,
          "name": "Owner",
          "type": "address"
        },
        {
          "indexed": false,
          "name": "purchased",
          "type": "bool"
        }
      ],
      "name": "SongRegistered",
      "outputs": [],
      "payable": true,
      "stateMutability": "payable",
      "type": "event",
      "signature": "0x400c6ccde72ea009de5c531de0bac2f79d74a557583271074603fb3b16956585",
      "anonymous": false
    },
    {
      "constant": true,
      "inputs": [
        {
          "indexed": false,
          "name": "id",
          "type": "uint256"
        },
        {
          "indexed": false,
          "name": "title",
          "type": "string"
        },
        {
          "indexed": false,
          "name": "price",
          "type": "uint256"
        },
        {
          "indexed": false,
          "name": "Owner",
          "type": "address"
        },
        {
          "indexed": false,
          "name": "purchased",
          "type": "bool"
        }
      ],
      "name": "SongPurchased",
      "outputs": [
        {
          "name": "",
          "type": "address[]"
        }
      ],
      "payable": false,
      "stateMutability": "view",
      "type": "event",
      "signature": "0x4e92880991184dc8001396657f045bad716ee38038ba44a7a1d3ed33d044bda4",
      "anonymous": false
    },
    {
      "anonymous": false,
      "inputs": [
        {
          "indexed": true,
          "name": "previousOwner",
          "type": "address"
        },
        {
          "indexed": true,
          "name": "newOwner",
          "type": "address"
        }
      ],
      "name": "OwnershipTransferred",
      "type": "event",
      "signature": "0x8be0079c531659141344cd1fd0a4f28419497f9722a3daafe3b4186f6b6457e0"
    },
    {
      "constant": false,
      "inputs": [
        {
          "name": "_title",
          "type": "string"
        },
        {
          "name": "_price",
          "type": "uint256"
        }
      ],
      "name": "registerSong",
      "outputs": [],
      "payable": false,
      "stateMutability": "nonpayable",
      "type": "function",
      "signature": "0xdedbe306"
    },
    {
      "constant": true,
      "inputs": [],
      "name": "getNumberOfSongs",
      "outputs": [
        {
          "name": "",
          "type": "uint256"
        }
      ],
      "payable": false,
      "stateMutability": "view",
      "type": "function",
      "signature": "0xa8ec42d8"
    },
    {
      "constant": false,
      "inputs": [
        {
          "name": "_id",
          "type": "uint256"
        }
      ],
      "name": "purchaseSong",
      "outputs": [],
      "payable": true,
      "stateMutability": "payable",
      "type": "function",
      "signature": "0x7b3e4ce0"
    },
    {
      "constant": false,
      "inputs": [],
      "name": "kill",
      "outputs": [],
      "payable": false,
      "stateMutability": "nonpayable",
      "type": "function",
      "signature": "0x41c0e1b5"
    }
  ],
  "bytecode": "0x608060405260006003556000600660006101000a81548160ff0219169083151502179055503480156200003157600080fd5b506200004b6200024d640100000000026401000000009004565b6000806101000a81548173ffffffffffffffffffffffffffffffffffffffff021916908373ffffffffffffffffffffffffffffffffffffffff1602179055506000809054906101000a900473ffffffffffffffffffffffffffffffffffffffff1673ffffffffffffffffffffffffffffffffffffffff16600073ffffffffffffffffffffffffffffffffffffffff167f8be0079c531659141344cd1fd0a4f28419497f9722a3daafe3b4186f6b6457e060405160405180910390a36040805190810160405280601581526020017f4166726f6265617473204d757369632053746f72650000000000000000000000815250600190805190602001906200015392919062000652565b50620001a56040805190810160405280600581526020017f5269736b79000000000000000000000000000000000000000000000000000000815250600162000255640100000000026401000000009004565b620001f66040805190810160405280600481526020017f4a6f726f00000000000000000000000000000000000000000000000000000000815250600162000255640100000000026401000000009004565b620002476040805190810160405280600b81526020017f42696c6c696f6e61697265000000000000000000000000000000000000000000815250600162000255640100000000026401000000009004565b62000788565b600033905090565b60008251111515620002cf576040517f08c379a00000000000000000000000000000000000000000000000000000000081526004018080602001828103825260138152602001807f496e76616c696420736f6e67207469746c652e0000000000000000000000000081525060200191505060405180910390fd5b60008111151562000348576040517f08c379a00000000000000000000000000000000000000000000000000000000081526004018080602001828103825260138152602001807f496e76616c696420736f6e672070726963652e0000000000000000000000000081525060200191505060405180910390fd5b600360008154809291906001019190505550600460a06040519081016040528060035481526020018481526020018381526020013373ffffffffffffffffffffffffffffffffffffffff1681526020016000151581525090806001815401808255809150509060018203906000526020600020906004020160009091929091909150600082015181600001556020820151816001019080519060200190620003f2929190620006d9565b506040820151816002015560608201518160030160006101000a81548173ffffffffffffffffffffffffffffffffffffffff021916908373ffffffffffffffffffffffffffffffffffffffff16021790555060808201518160030160146101000a81548160ff02191690831515021790555050505060a06040519081016040528060035481526020018381526020018281526020013373ffffffffffffffffffffffffffffffffffffffff16815260200160001515815250600260006003548152602001908152602001600020600082015181600001556020820151816001019080519060200190620004e7929190620006d9565b506040820151816002015560608201518160030160006101000a81548173ffffffffffffffffffffffffffffffffffffffff021916908373ffffffffffffffffffffffffffffffffffffffff16021790555060808201518160030160146101000a81548160ff0219169083151502179055509050507f400c6ccde72ea009de5c531de0bac2f79d74a557583271074603fb3b16956585600354838333600060405180868152602001806020018581526020018473ffffffffffffffffffffffffffffffffffffffff1673ffffffffffffffffffffffffffffffffffffffff16815260200183151515158152602001828103825286818151815260200191508051906020019080838360005b838110156200060f578082015181840152602081019050620005f2565b50505050905090810190601f1680156200063d5780820380516001836020036101000a031916815260200191505b50965050505050505060405180910390a15050565b828054600181600116156101000203166002900490600052602060002090601f016020900481019282601f106200069557805160ff1916838001178555620006c6565b82800160010185558215620006c6579182015b82811115620006c5578251825591602001919060010190620006a8565b5b509050620006d5919062000760565b5090565b828054600181600116156101000203166002900490600052602060002090601f016020900481019282601f106200071c57805160ff19168380011785556200074d565b828001600101855582156200074d579182015b828111156200074c5782518255916020019190600101906200072f565b5b5090506200075c919062000760565b5090565b6200078591905b808211156200078157600081600090555060010162000767565b5090565b90565b61188e80620007986000396000f3fe6080604052600436106100c5576000357c0100000000000000000000000000000000000000000000000000000000900463ffffffff16806306fdde03146100ca578063304cff301461015a57806341c0e1b51461025a578063715018a6146102715780637b3e4ce0146102885780638da5cb5b146102b65780638f32d59b1461030d578063931a889b1461033c578063a8ec42d814610367578063beaf69b514610392578063dedbe30614610492578063f2aa821814610564578063f2fde38b146105df575b600080fd5b3480156100d657600080fd5b506100df610630565b6040518080602001828103825283818151815260200191508051906020019080838360005b8381101561011f578082015181840152602081019050610104565b50505050905090810190601f16801561014c5780820380516001836020036101000a031916815260200191505b509250505060405180910390f35b34801561016657600080fd5b506101936004803603602081101561017d57600080fd5b81019080803590602001909291905050506106ce565b60405180868152602001806020018581526020018473ffffffffffffffffffffffffffffffffffffffff1673ffffffffffffffffffffffffffffffffffffffff16815260200183151515158152602001828103825286818151815260200191508051906020019080838360005b8381101561021b578082015181840152602081019050610200565b50505050905090810190601f1680156102485780820380516001836020036101000a031916815260200191505b50965050505050505060405180910390f35b34801561026657600080fd5b5061026f6107c9565b005b34801561027d57600080fd5b506102866108bd565b005b6102b46004803603602081101561029e57600080fd5b81019080803590602001909291905050506109f8565b005b3480156102c257600080fd5b506102cb610f91565b604051808273ffffffffffffffffffffffffffffffffffffffff1673ffffffffffffffffffffffffffffffffffffffff16815260200191505060405180910390f35b34801561031957600080fd5b50610322610fba565b604051808215151515815260200191505060405180910390f35b34801561034857600080fd5b50610351611018565b6040518082815260200191505060405180910390f35b34801561037357600080fd5b5061037c61101e565b6040518082815260200191505060405180910390f35b34801561039e57600080fd5b506103cb600480360360208110156103b557600080fd5b810190808035906020019092919050505061102b565b60405180868152602001806020018581526020018473ffffffffffffffffffffffffffffffffffffffff1673ffffffffffffffffffffffffffffffffffffffff16815260200183151515158152602001828103825286818151815260200191508051906020019080838360005b83811015610453578082015181840152602081019050610438565b50505050905090810190601f1680156104805780820380516001836020036101000a031916815260200191505b50965050505050505060405180910390f35b34801561049e57600080fd5b50610562600480360360408110156104b557600080fd5b81019080803590602001906401000000008111156104d257600080fd5b8201836020820111156104e457600080fd5b8035906020019184600183028401116401000000008311171561050657600080fd5b91908080601f016020809104026020016040519081016040528093929190818152602001838380828437600081840152601f19601f82011690508083019250505050505050919291929080359060200190929190505050611135565b005b34801561057057600080fd5b5061059d6004803603602081101561058757600080fd5b8101908080359060200190929190505050611529565b604051808273ffffffffffffffffffffffffffffffffffffffff1673ffffffffffffffffffffffffffffffffffffffff16815260200191505060405180910390f35b3480156105eb57600080fd5b5061062e6004803603602081101561060257600080fd5b81019080803573ffffffffffffffffffffffffffffffffffffffff16906020019092919050505061155c565b005b60018054600181600116156101000203166002900480601f0160208091040260200160405190810160405280929190818152602001828054600181600116156101000203166002900480156106c65780601f1061069b576101008083540402835291602001916106c6565b820191906000526020600020905b8154815290600101906020018083116106a957829003601f168201915b505050505081565b6002602052806000526040600020600091509050806000015490806001018054600181600116156101000203166002900480601f0160208091040260200160405190810160405280929190818152602001828054600181600116156101000203166002900480156107805780601f1061075557610100808354040283529160200191610780565b820191906000526020600020905b81548152906001019060200180831161076357829003601f168201915b5050505050908060020154908060030160009054906101000a900473ffffffffffffffffffffffffffffffffffffffff16908060030160149054906101000a900460ff16905085565b6107d1610fba565b1515610845576040517f08c379a00000000000000000000000000000000000000000000000000000000081526004018080602001828103825260208152602001807f4f776e61626c653a2063616c6c6572206973206e6f7420746865206f776e657281525060200191505060405180910390fd5b600660009054906101000a900460ff16151561086057600080fd5b610868610f91565b73ffffffffffffffffffffffffffffffffffffffff163373ffffffffffffffffffffffffffffffffffffffff1614156108bb576108a3610f91565b73ffffffffffffffffffffffffffffffffffffffff16ff5b565b6108c5610fba565b1515610939576040517f08c379a00000000000000000000000000000000000000000000000000000000081526004018080602001828103825260208152602001807f4f776e61626c653a2063616c6c6572206973206e6f7420746865206f776e657281525060200191505060405180910390fd5b600073ffffffffffffffffffffffffffffffffffffffff166000809054906101000a900473ffffffffffffffffffffffffffffffffffffffff1673ffffffffffffffffffffffffffffffffffffffff167f8be0079c531659141344cd1fd0a4f28419497f9722a3daafe3b4186f6b6457e060405160405180910390a360008060006101000a81548173ffffffffffffffffffffffffffffffffffffffff021916908373ffffffffffffffffffffffffffffffffffffffff160217905550565b610a00611775565b6002600083815260200190815260200160002060a0604051908101604052908160008201548152602001600182018054600181600116156101000203166002900480601f016020809104026020016040519081016040528092919081815260200182805460018160011615610100020316600290048015610ac25780601f10610a9757610100808354040283529160200191610ac2565b820191906000526020600020905b815481529060010190602001808311610aa557829003601f168201915b50505050508152602001600282015481526020016003820160009054906101000a900473ffffffffffffffffffffffffffffffffffffffff1673ffffffffffffffffffffffffffffffffffffffff1673ffffffffffffffffffffffffffffffffffffffff1681526020016003820160149054906101000a900460ff16151515158152505090506000600354111515610b5957600080fd5b60008160000151118015610b735750600354816000015111155b1515610b7e57600080fd5b8060800151151515610c1e576040517f08c379a000000000000000000000000000000000000000000000000000000000815260040180806020018281038252602c8152602001807f536f72727921205468697320736f6e672068617320616c72656164792062656581526020017f6e207075726368617365642e000000000000000000000000000000000000000081525060400191505060405180910390fd5b80604001513410151515610cc0576040517f08c379a00000000000000000000000000000000000000000000000000000000081526004018080602001828103825260318152602001807f496e73756666696369656e742066756e6473206f7220546f6f206d756368212081526020017f4974206d7573742062652065786163742100000000000000000000000000000081525060400191505060405180910390fd5b6000816060015190503373ffffffffffffffffffffffffffffffffffffffff168173ffffffffffffffffffffffffffffffffffffffff1614151515610d0457600080fd5b33826060019073ffffffffffffffffffffffffffffffffffffffff16908173ffffffffffffffffffffffffffffffffffffffff16815250508073ffffffffffffffffffffffffffffffffffffffff166108fc349081150290604051600060405180830381858888f19350505050158015610d82573d6000803e3d6000fd5b5060018260800190151590811515815250508160026000858152602001908152602001600020600082015181600001556020820151816001019080519060200190610dce9291906117bd565b506040820151816002015560608201518160030160006101000a81548173ffffffffffffffffffffffffffffffffffffffff021916908373ffffffffffffffffffffffffffffffffffffffff16021790555060808201518160030160146101000a81548160ff021916908315150217905550905050336005600085815260200190815260200160002060006101000a81548173ffffffffffffffffffffffffffffffffffffffff021916908373ffffffffffffffffffffffffffffffffffffffff1602179055507f4e92880991184dc8001396657f045bad716ee38038ba44a7a1d3ed33d044bda46003548360200151846040015133600160405180868152602001806020018581526020018473ffffffffffffffffffffffffffffffffffffffff1673ffffffffffffffffffffffffffffffffffffffff16815260200183151515158152602001828103825286818151815260200191508051906020019080838360005b83811015610f4e578082015181840152602081019050610f33565b50505050905090810190601f168015610f7b5780820380516001836020036101000a031916815260200191505b50965050505050505060405180910390a1505050565b60008060009054906101000a900473ffffffffffffffffffffffffffffffffffffffff16905090565b60008060009054906101000a900473ffffffffffffffffffffffffffffffffffffffff1673ffffffffffffffffffffffffffffffffffffffff16610ffc6115e4565b73ffffffffffffffffffffffffffffffffffffffff1614905090565b60035481565b6000600480549050905090565b60048181548110151561103a57fe5b9060005260206000209060040201600091509050806000015490806001018054600181600116156101000203166002900480601f0160208091040260200160405190810160405280929190818152602001828054600181600116156101000203166002900480156110ec5780601f106110c1576101008083540402835291602001916110ec565b820191906000526020600020905b8154815290600101906020018083116110cf57829003601f168201915b5050505050908060020154908060030160009054906101000a900473ffffffffffffffffffffffffffffffffffffffff16908060030160149054906101000a900460ff16905085565b600082511115156111ae576040517f08c379a00000000000000000000000000000000000000000000000000000000081526004018080602001828103825260138152602001807f496e76616c696420736f6e67207469746c652e0000000000000000000000000081525060200191505060405180910390fd5b600081111515611226576040517f08c379a00000000000000000000000000000000000000000000000000000000081526004018080602001828103825260138152602001807f496e76616c696420736f6e672070726963652e0000000000000000000000000081525060200191505060405180910390fd5b600360008154809291906001019190505550600460a06040519081016040528060035481526020018481526020018381526020013373ffffffffffffffffffffffffffffffffffffffff16815260200160001515815250908060018154018082558091505090600182039060005260206000209060040201600090919290919091506000820151816000015560208201518160010190805190602001906112ce9291906117bd565b506040820151816002015560608201518160030160006101000a81548173ffffffffffffffffffffffffffffffffffffffff021916908373ffffffffffffffffffffffffffffffffffffffff16021790555060808201518160030160146101000a81548160ff02191690831515021790555050505060a06040519081016040528060035481526020018381526020018281526020013373ffffffffffffffffffffffffffffffffffffffff168152602001600015158152506002600060035481526020019081526020016000206000820151816000015560208201518160010190805190602001906113c19291906117bd565b506040820151816002015560608201518160030160006101000a81548173ffffffffffffffffffffffffffffffffffffffff021916908373ffffffffffffffffffffffffffffffffffffffff16021790555060808201518160030160146101000a81548160ff0219169083151502179055509050507f400c6ccde72ea009de5c531de0bac2f79d74a557583271074603fb3b16956585600354838333600060405180868152602001806020018581526020018473ffffffffffffffffffffffffffffffffffffffff1673ffffffffffffffffffffffffffffffffffffffff16815260200183151515158152602001828103825286818151815260200191508051906020019080838360005b838110156114e75780820151818401526020810190506114cc565b50505050905090810190601f1680156115145780820380516001836020036101000a031916815260200191505b50965050505050505060405180910390a15050565b60056020528060005260406000206000915054906101000a900473ffffffffffffffffffffffffffffffffffffffff1681565b611564610fba565b15156115d8576040517f08c379a00000000000000000000000000000000000000000000000000000000081526004018080602001828103825260208152602001807f4f776e61626c653a2063616c6c6572206973206e6f7420746865206f776e657281525060200191505060405180910390fd5b6115e1816115ec565b50565b600033905090565b600073ffffffffffffffffffffffffffffffffffffffff168173ffffffffffffffffffffffffffffffffffffffff16141515156116b7576040517f08c379a00000000000000000000000000000000000000000000000000000000081526004018080602001828103825260268152602001807f4f776e61626c653a206e6577206f776e657220697320746865207a65726f206181526020017f646472657373000000000000000000000000000000000000000000000000000081525060400191505060405180910390fd5b8073ffffffffffffffffffffffffffffffffffffffff166000809054906101000a900473ffffffffffffffffffffffffffffffffffffffff1673ffffffffffffffffffffffffffffffffffffffff167f8be0079c531659141344cd1fd0a4f28419497f9722a3daafe3b4186f6b6457e060405160405180910390a3806000806101000a81548173ffffffffffffffffffffffffffffffffffffffff021916908373ffffffffffffffffffffffffffffffffffffffff16021790555050565b60a060405190810160405280600081526020016060815260200160008152602001600073ffffffffffffffffffffffffffffffffffffffff1681526020016000151581525090565b828054600181600116156101000203166002900490600052602060002090601f016020900481019282601f106117fe57805160ff191683800117855561182c565b8280016001018555821561182c579182015b8281111561182b578251825591602001919060010190611810565b5b509050611839919061183d565b5090565b61185f91905b8082111561185b576000816000905550600101611843565b5090565b9056fea165627a7a72305820be9de65d2d551cb660df2594b9b02f7da40f5e4e27dbfb342e9e36d662a23cb10029",
  "source": "pragma solidity >=0.5.0 < 0.6.0;\n\n\nimport \"@openzeppelin/contracts/ownership/Ownable.sol\";\n\n////import \"github.com/OpenZeppelin/openzeppelin-solidity/contracts/ownership/Ownable.sol\";\n\n\ncontract SongRegistry is Ownable {\n    string public name;\n\n     //store songs in mapping\n   mapping(uint => Song) public songs;\n\n   //keep track on number of songs \n   uint public songCount = 0;\n\n   //define the struct Song \n    struct Song {\n        uint id;\n        string title;\n        uint price;\n        address payable Owner;\n        bool purchased;\n    }\n\n  \n\n   //event to be triggered when song is registered\n    event SongRegistered(\n       uint id,\n       string title,\n       uint price,\n       address payable Owner,\n       bool purchased\n    );\n\n    //event to be triggered when song is purchased\n    event SongPurchased(\n       uint id,\n       string title,\n       uint price,\n       address payable Owner,\n       bool purchased\n    );\n\n\n\n   //store songs in array\n    Song[] public Songs;\n\n   //store buyers\n    mapping (uint => address) public buyers;\n\n    \n     bool private emergency = false;\n\n    //circut breaker modifier\n    modifier onlyInEmergency { \n    require(emergency);  _;\n}\n\n\n\n   // address[] public buyers;\n    constructor() public {\n        name = \"Afrobeats Music Store\";\n        registerSong(\"Risky\",1);\n        registerSong(\"Joro\",1);\n        registerSong(\"Billionaire\",1);\n\n    }\n\n    //function to register a song\n    function registerSong(string memory _title,uint _price) public {\n        //check if title is valid\n        require(bytes(_title).length > 0, \"Invalid song title.\");\n        \n        //check if the price is valid\n        require(_price > 0, \"Invalid song price.\");\n        //increase song count\n        songCount ++;\n        //create song\n        Songs.push(Song(songCount,_title,_price,msg.sender,false));\n        songs[songCount] = Song(songCount,_title,_price,msg.sender,false);\n        emit SongRegistered(songCount,_title,_price,msg.sender,false);\n\n\n    }\n\n    //fetch number of songs\n    function getNumberOfSongs() external view returns(uint) {\n    // return the length of the song array\n    return Songs.length;\n    }\n    //function to buy a song\n    function purchaseSong(uint _id) payable public {\n        //get the song from the mapping\n        Song memory song = songs[_id];\n        //check whether there is at least one song\n        require(songCount > 0);\n        //check that the product id is valid\n        require(song.id > 0 &&  song.id <= songCount);\n        //check that the song has not been already purchased\n        require(!song.purchased,'Sorry! This song has already been purchased.');\n        //check that the ether sent is equal to the song price\n        require(msg.value >= song.price, 'Insufficient funds or Too much! It must be exact!');\n        //get the seller/owner and store to variable owner\n        address payable seller = song.Owner;\n        //check that the buyer is not the seller/owner\n          require(seller != msg.sender);\n        \n        //transfer ownership of the song to the buyer\n        song.Owner = msg.sender;\n        //pay the owner \n        address(seller).transfer(msg.value);\n        //mark the song as purchased\n        song.purchased = true;\n        //update the purchased product in the mapping\n        songs[_id] = song;\n        buyers[_id] = msg.sender;\n    \n        //emit event to declare song has been purchased successfully\n        emit SongPurchased(songCount,song.title,song.price,msg.sender,true);\n\n    \n    }\n    \n\n     function kill() public onlyOwner onlyInEmergency {\n        if(msg.sender == owner()) selfdestruct(address(uint160(owner()))); // cast owner to address payable\n      }\n\n      \n\n\n    \n\n}",
  "sourcePath": "/Users/kalubachikonde/Consensys/Project/ConsenSys-Academy-Blockchain-Developer-Program-Project/contracts/SongRegistry.sol",
  "compiler": {
    "name": "solc",
    "version": "0.5.0+commit.1d4f565a.Emscripten.clang"
  },
  "schemaVersion": "3.0.6",
  "updatedAt": "2020-01-18T19:56:41.521Z",
  "devdoc": {
    "methods": {
      "isOwner()": {
        "details": "Returns true if the caller is the current owner."
      },
      "owner()": {
        "details": "Returns the address of the current owner."
      },
      "renounceOwnership()": {
        "details": "Leaves the contract without owner. It will not be possible to call `onlyOwner` functions anymore. Can only be called by the current owner.     * NOTE: Renouncing ownership will leave the contract without an owner, thereby removing any functionality that is only available to the owner."
      },
      "transferOwnership(address)": {
        "details": "Transfers ownership of the contract to a new account (`newOwner`). Can only be called by the current owner."
      }
    }
  },
  "userdoc": {
    "methods": {},
    "notice": "/import \"github.com/OpenZeppelin/openzeppelin-solidity/contracts/ownership/Ownable.sol\";"
  }
}