{
  "contractName": "SongRegistry",
  "abi": [
    {
      "constant": true,
      "inputs": [],
      "name": "name",
      "outputs": [
        {
          "name": "",
          "type": "string"
        }
      ],
      "payable": false,
      "stateMutability": "view",
      "type": "function",
      "signature": "0x06fdde03"
    },
    {
      "constant": true,
      "inputs": [
        {
          "name": "",
          "type": "uint256"
        }
      ],
      "name": "songs",
      "outputs": [
        {
          "name": "id",
          "type": "uint256"
        },
        {
          "name": "title",
          "type": "string"
        },
        {
          "name": "price",
          "type": "uint256"
        },
        {
          "name": "owner",
          "type": "address"
        },
        {
          "name": "purchased",
          "type": "bool"
        }
      ],
      "payable": false,
      "stateMutability": "view",
      "type": "function",
      "signature": "0x304cff30"
    },
    {
      "constant": true,
      "inputs": [],
      "name": "songCount",
      "outputs": [
        {
          "name": "",
          "type": "uint256"
        }
      ],
      "payable": false,
      "stateMutability": "view",
      "type": "function",
      "signature": "0x931a889b"
    },
    {
      "constant": true,
      "inputs": [
        {
          "name": "",
          "type": "uint256"
        }
      ],
      "name": "Songs",
      "outputs": [
        {
          "name": "id",
          "type": "uint256"
        },
        {
          "name": "title",
          "type": "string"
        },
        {
          "name": "price",
          "type": "uint256"
        },
        {
          "name": "owner",
          "type": "address"
        },
        {
          "name": "purchased",
          "type": "bool"
        }
      ],
      "payable": false,
      "stateMutability": "view",
      "type": "function",
      "signature": "0xbeaf69b5"
    },
    {
      "constant": true,
      "inputs": [
        {
          "name": "",
          "type": "uint256"
        }
      ],
      "name": "buyers",
      "outputs": [
        {
          "name": "",
          "type": "address"
        }
      ],
      "payable": false,
      "stateMutability": "view",
      "type": "function",
      "signature": "0xf2aa8218"
    },
    {
      "inputs": [],
      "payable": false,
      "stateMutability": "nonpayable",
      "type": "constructor",
      "signature": "constructor"
    },
    {
      "anonymous": false,
      "inputs": [
        {
          "indexed": false,
          "name": "id",
          "type": "uint256"
        },
        {
          "indexed": false,
          "name": "title",
          "type": "string"
        },
        {
          "indexed": false,
          "name": "price",
          "type": "uint256"
        },
        {
          "indexed": false,
          "name": "owner",
          "type": "address"
        },
        {
          "indexed": false,
          "name": "purchased",
          "type": "bool"
        }
      ],
      "name": "SongRegistered",
      "type": "event",
      "signature": "0x400c6ccde72ea009de5c531de0bac2f79d74a557583271074603fb3b16956585"
    },
    {
      "anonymous": false,
      "inputs": [
        {
          "indexed": false,
          "name": "id",
          "type": "uint256"
        },
        {
          "indexed": false,
          "name": "title",
          "type": "string"
        },
        {
          "indexed": false,
          "name": "price",
          "type": "uint256"
        },
        {
          "indexed": false,
          "name": "owner",
          "type": "address"
        },
        {
          "indexed": false,
          "name": "purchased",
          "type": "bool"
        }
      ],
      "name": "SongPurchased",
      "type": "event",
      "signature": "0x4e92880991184dc8001396657f045bad716ee38038ba44a7a1d3ed33d044bda4"
    },
    {
      "constant": false,
      "inputs": [
        {
          "name": "_title",
          "type": "string"
        },
        {
          "name": "_price",
          "type": "uint256"
        }
      ],
      "name": "registerSong",
      "outputs": [],
      "payable": false,
      "stateMutability": "nonpayable",
      "type": "function",
      "signature": "0xdedbe306"
    },
    {
      "constant": true,
      "inputs": [],
      "name": "getNumberOfSongs",
      "outputs": [
        {
          "name": "",
          "type": "uint256"
        }
      ],
      "payable": false,
      "stateMutability": "view",
      "type": "function",
      "signature": "0xa8ec42d8"
    },
    {
      "constant": false,
      "inputs": [
        {
          "name": "_id",
          "type": "uint256"
        }
      ],
      "name": "purchaseSong",
      "outputs": [],
      "payable": true,
      "stateMutability": "payable",
      "type": "function",
      "signature": "0x7b3e4ce0"
    },
    {
      "constant": true,
      "inputs": [],
      "name": "getBuyers",
      "outputs": [
        {
          "name": "",
          "type": "address[]"
        }
      ],
      "payable": false,
      "stateMutability": "view",
      "type": "function",
      "signature": "0xf64bfaba"
    }
  ],
  "bytecode": "0x608060405260006003553480156200001657600080fd5b50336000806101000a81548173ffffffffffffffffffffffffffffffffffffffff021916908373ffffffffffffffffffffffffffffffffffffffff1602179055506040805190810160405280601581526020017f4166726f6265617473204d757369632053746f7265000000000000000000000081525060019080519060200190620000a49291906200059b565b50620000f66040805190810160405280600581526020017f5269736b7900000000000000000000000000000000000000000000000000000081525060016200019e640100000000026401000000009004565b620001476040805190810160405280600481526020017f4a6f726f0000000000000000000000000000000000000000000000000000000081525060016200019e640100000000026401000000009004565b620001986040805190810160405280600b81526020017f42696c6c696f6e6169726500000000000000000000000000000000000000000081525060016200019e640100000000026401000000009004565b620006d1565b6000825111151562000218576040517f08c379a00000000000000000000000000000000000000000000000000000000081526004018080602001828103825260138152602001807f496e76616c696420736f6e67207469746c652e0000000000000000000000000081525060200191505060405180910390fd5b60008111151562000291576040517f08c379a00000000000000000000000000000000000000000000000000000000081526004018080602001828103825260138152602001807f496e76616c696420736f6e672070726963652e0000000000000000000000000081525060200191505060405180910390fd5b600360008154809291906001019190505550600460a06040519081016040528060035481526020018481526020018381526020013373ffffffffffffffffffffffffffffffffffffffff16815260200160001515815250908060018154018082558091505090600182039060005260206000209060040201600090919290919091506000820151816000015560208201518160010190805190602001906200033b92919062000622565b506040820151816002015560608201518160030160006101000a81548173ffffffffffffffffffffffffffffffffffffffff021916908373ffffffffffffffffffffffffffffffffffffffff16021790555060808201518160030160146101000a81548160ff02191690831515021790555050505060a06040519081016040528060035481526020018381526020018281526020013373ffffffffffffffffffffffffffffffffffffffff168152602001600015158152506002600060035481526020019081526020016000206000820151816000015560208201518160010190805190602001906200043092919062000622565b506040820151816002015560608201518160030160006101000a81548173ffffffffffffffffffffffffffffffffffffffff021916908373ffffffffffffffffffffffffffffffffffffffff16021790555060808201518160030160146101000a81548160ff0219169083151502179055509050507f400c6ccde72ea009de5c531de0bac2f79d74a557583271074603fb3b16956585600354838333600060405180868152602001806020018581526020018473ffffffffffffffffffffffffffffffffffffffff1673ffffffffffffffffffffffffffffffffffffffff16815260200183151515158152602001828103825286818151815260200191508051906020019080838360005b83811015620005585780820151818401526020810190506200053b565b50505050905090810190601f168015620005865780820380516001836020036101000a031916815260200191505b50965050505050505060405180910390a15050565b828054600181600116156101000203166002900490600052602060002090601f016020900481019282601f10620005de57805160ff19168380011785556200060f565b828001600101855582156200060f579182015b828111156200060e578251825591602001919060010190620005f1565b5b5090506200061e9190620006a9565b5090565b828054600181600116156101000203166002900490600052602060002090601f016020900481019282601f106200066557805160ff191683800117855562000696565b8280016001018555821562000696579182015b828111156200069557825182559160200191906001019062000678565b5b509050620006a59190620006a9565b5090565b620006ce91905b80821115620006ca576000816000905550600101620006b0565b5090565b90565b61139880620006e16000396000f3fe608060405260043610610099576000357c0100000000000000000000000000000000000000000000000000000000900463ffffffff16806306fdde031461009e578063304cff301461012e5780637b3e4ce01461022e578063931a889b1461025c578063a8ec42d814610287578063beaf69b5146102b2578063dedbe306146103b2578063f2aa821814610484578063f64bfaba146104ff575b600080fd5b3480156100aa57600080fd5b506100b361056b565b6040518080602001828103825283818151815260200191508051906020019080838360005b838110156100f35780820151818401526020810190506100d8565b50505050905090810190601f1680156101205780820380516001836020036101000a031916815260200191505b509250505060405180910390f35b34801561013a57600080fd5b506101676004803603602081101561015157600080fd5b8101908080359060200190929190505050610609565b60405180868152602001806020018581526020018473ffffffffffffffffffffffffffffffffffffffff1673ffffffffffffffffffffffffffffffffffffffff16815260200183151515158152602001828103825286818151815260200191508051906020019080838360005b838110156101ef5780820151818401526020810190506101d4565b50505050905090810190601f16801561021c5780820380516001836020036101000a031916815260200191505b50965050505050505060405180910390f35b61025a6004803603602081101561024457600080fd5b8101908080359060200190929190505050610704565b005b34801561026857600080fd5b50610271610ca2565b6040518082815260200191505060405180910390f35b34801561029357600080fd5b5061029c610ca8565b6040518082815260200191505060405180910390f35b3480156102be57600080fd5b506102eb600480360360208110156102d557600080fd5b8101908080359060200190929190505050610cb5565b60405180868152602001806020018581526020018473ffffffffffffffffffffffffffffffffffffffff1673ffffffffffffffffffffffffffffffffffffffff16815260200183151515158152602001828103825286818151815260200191508051906020019080838360005b83811015610373578082015181840152602081019050610358565b50505050905090810190601f1680156103a05780820380516001836020036101000a031916815260200191505b50965050505050505060405180910390f35b3480156103be57600080fd5b50610482600480360360408110156103d557600080fd5b81019080803590602001906401000000008111156103f257600080fd5b82018360208201111561040457600080fd5b8035906020019184600183028401116401000000008311171561042657600080fd5b91908080601f016020809104026020016040519081016040528093929190818152602001838380828437600081840152601f19601f82011690508083019250505050505050919291929080359060200190929190505050610dbf565b005b34801561049057600080fd5b506104bd600480360360208110156104a757600080fd5b81019080803590602001909291905050506111b3565b604051808273ffffffffffffffffffffffffffffffffffffffff1673ffffffffffffffffffffffffffffffffffffffff16815260200191505060405180910390f35b34801561050b57600080fd5b506105146111f1565b6040518080602001828103825283818151815260200191508051906020019060200280838360005b8381101561055757808201518184015260208101905061053c565b505050509050019250505060405180910390f35b60018054600181600116156101000203166002900480601f0160208091040260200160405190810160405280929190818152602001828054600181600116156101000203166002900480156106015780601f106105d657610100808354040283529160200191610601565b820191906000526020600020905b8154815290600101906020018083116105e457829003601f168201915b505050505081565b6002602052806000526040600020600091509050806000015490806001018054600181600116156101000203166002900480601f0160208091040260200160405190810160405280929190818152602001828054600181600116156101000203166002900480156106bb5780601f10610690576101008083540402835291602001916106bb565b820191906000526020600020905b81548152906001019060200180831161069e57829003601f168201915b5050505050908060020154908060030160009054906101000a900473ffffffffffffffffffffffffffffffffffffffff16908060030160149054906101000a900460ff16905085565b61070c61127f565b6002600083815260200190815260200160002060a0604051908101604052908160008201548152602001600182018054600181600116156101000203166002900480601f0160208091040260200160405190810160405280929190818152602001828054600181600116156101000203166002900480156107ce5780601f106107a3576101008083540402835291602001916107ce565b820191906000526020600020905b8154815290600101906020018083116107b157829003601f168201915b50505050508152602001600282015481526020016003820160009054906101000a900473ffffffffffffffffffffffffffffffffffffffff1673ffffffffffffffffffffffffffffffffffffffff1673ffffffffffffffffffffffffffffffffffffffff1681526020016003820160149054906101000a900460ff1615151515815250509050600060035411151561086557600080fd5b6000816000015111801561087f5750600354816000015111155b151561088a57600080fd5b806080015115151561092a576040517f08c379a000000000000000000000000000000000000000000000000000000000815260040180806020018281038252602c8152602001807f536f72727921205468697320736f6e672068617320616c72656164792062656581526020017f6e207075726368617365642e000000000000000000000000000000000000000081525060400191505060405180910390fd5b8060400151341415156109cb576040517f08c379a00000000000000000000000000000000000000000000000000000000081526004018080602001828103825260318152602001807f496e73756666696369656e742066756e6473206f7220546f6f206d756368212081526020017f4974206d7573742062652065786163742100000000000000000000000000000081525060400191505060405180910390fd5b6000816060015190503373ffffffffffffffffffffffffffffffffffffffff168173ffffffffffffffffffffffffffffffffffffffff1614151515610a0f57600080fd5b33826060019073ffffffffffffffffffffffffffffffffffffffff16908173ffffffffffffffffffffffffffffffffffffffff16815250508073ffffffffffffffffffffffffffffffffffffffff166108fc349081150290604051600060405180830381858888f19350505050158015610a8d573d6000803e3d6000fd5b5060018260800190151590811515815250508160026000858152602001908152602001600020600082015181600001556020820151816001019080519060200190610ad99291906112c7565b506040820151816002015560608201518160030160006101000a81548173ffffffffffffffffffffffffffffffffffffffff021916908373ffffffffffffffffffffffffffffffffffffffff16021790555060808201518160030160146101000a81548160ff02191690831515021790555090505033600584815481101515610b5e57fe5b9060005260206000200160006101000a81548173ffffffffffffffffffffffffffffffffffffffff021916908373ffffffffffffffffffffffffffffffffffffffff1602179055507f4e92880991184dc8001396657f045bad716ee38038ba44a7a1d3ed33d044bda46003548360200151846040015133600160405180868152602001806020018581526020018473ffffffffffffffffffffffffffffffffffffffff1673ffffffffffffffffffffffffffffffffffffffff16815260200183151515158152602001828103825286818151815260200191508051906020019080838360005b83811015610c5f578082015181840152602081019050610c44565b50505050905090810190601f168015610c8c5780820380516001836020036101000a031916815260200191505b50965050505050505060405180910390a1505050565b60035481565b6000600480549050905090565b600481815481101515610cc457fe5b9060005260206000209060040201600091509050806000015490806001018054600181600116156101000203166002900480601f016020809104026020016040519081016040528092919081815260200182805460018160011615610100020316600290048015610d765780601f10610d4b57610100808354040283529160200191610d76565b820191906000526020600020905b815481529060010190602001808311610d5957829003601f168201915b5050505050908060020154908060030160009054906101000a900473ffffffffffffffffffffffffffffffffffffffff16908060030160149054906101000a900460ff16905085565b60008251111515610e38576040517f08c379a00000000000000000000000000000000000000000000000000000000081526004018080602001828103825260138152602001807f496e76616c696420736f6e67207469746c652e0000000000000000000000000081525060200191505060405180910390fd5b600081111515610eb0576040517f08c379a00000000000000000000000000000000000000000000000000000000081526004018080602001828103825260138152602001807f496e76616c696420736f6e672070726963652e0000000000000000000000000081525060200191505060405180910390fd5b600360008154809291906001019190505550600460a06040519081016040528060035481526020018481526020018381526020013373ffffffffffffffffffffffffffffffffffffffff1681526020016000151581525090806001815401808255809150509060018203906000526020600020906004020160009091929091909150600082015181600001556020820151816001019080519060200190610f589291906112c7565b506040820151816002015560608201518160030160006101000a81548173ffffffffffffffffffffffffffffffffffffffff021916908373ffffffffffffffffffffffffffffffffffffffff16021790555060808201518160030160146101000a81548160ff02191690831515021790555050505060a06040519081016040528060035481526020018381526020018281526020013373ffffffffffffffffffffffffffffffffffffffff1681526020016000151581525060026000600354815260200190815260200160002060008201518160000155602082015181600101908051906020019061104b9291906112c7565b506040820151816002015560608201518160030160006101000a81548173ffffffffffffffffffffffffffffffffffffffff021916908373ffffffffffffffffffffffffffffffffffffffff16021790555060808201518160030160146101000a81548160ff0219169083151502179055509050507f400c6ccde72ea009de5c531de0bac2f79d74a557583271074603fb3b16956585600354838333600060405180868152602001806020018581526020018473ffffffffffffffffffffffffffffffffffffffff1673ffffffffffffffffffffffffffffffffffffffff16815260200183151515158152602001828103825286818151815260200191508051906020019080838360005b83811015611171578082015181840152602081019050611156565b50505050905090810190601f16801561119e5780820380516001836020036101000a031916815260200191505b50965050505050505060405180910390a15050565b6005818154811015156111c257fe5b906000526020600020016000915054906101000a900473ffffffffffffffffffffffffffffffffffffffff1681565b6060600580548060200260200160405190810160405280929190818152602001828054801561127557602002820191906000526020600020905b8160009054906101000a900473ffffffffffffffffffffffffffffffffffffffff1673ffffffffffffffffffffffffffffffffffffffff168152602001906001019080831161122b575b5050505050905090565b60a060405190810160405280600081526020016060815260200160008152602001600073ffffffffffffffffffffffffffffffffffffffff1681526020016000151581525090565b828054600181600116156101000203166002900490600052602060002090601f016020900481019282601f1061130857805160ff1916838001178555611336565b82800160010185558215611336579182015b8281111561133557825182559160200191906001019061131a565b5b5090506113439190611347565b5090565b61136991905b8082111561136557600081600090555060010161134d565b5090565b9056fea165627a7a72305820c6cdb714e33b7bc32809ebd3e4f6829486f34adfb605b4153e8e621cd53c445d0029",
  "source": "pragma solidity >=0.5.0 < 0.6.0;\n\nimport \"./Owned.sol\";\n\ncontract SongRegistry is Owned {\n    string public name;\n\n     //store songs in mapping\n   mapping(uint => Song) public songs;\n\n   //keep track on number of songs \n   uint public songCount = 0;\n\n   //define the struct Song \n    struct Song {\n        uint id;\n        string title;\n        uint price;\n        address payable owner;\n        bool purchased;\n    }\n\n  \n\n   //event to be triggered when song is created\n    event SongRegistered(\n       uint id,\n       string title,\n       uint price,\n       address payable owner,\n       bool purchased\n    );\n\n    event SongPurchased(\n       uint id,\n       string title,\n       uint price,\n       address payable owner,\n       bool purchased\n    );\n\n\n\n   //store songs in array\n    Song[] public Songs;\n\n   //store buyers\n   //mapping (uint => address[]) public buyers;\n    address[] public buyers;\n    constructor() public {\n        name = \"Afrobeats Music Store\";\n        registerSong(\"Risky\",1);\n        registerSong(\"Joro\",1);\n        registerSong(\"Billionaire\",1);\n\n    }\n\n    //function to register a song\n    function registerSong(string memory _title,uint _price) public {\n        //check if title is valid\n        require(bytes(_title).length > 0, \"Invalid song title.\");\n        //check if the price is valid\n        require(_price > 0, \"Invalid song price.\");\n        //increase song count\n        songCount ++;\n        //create song\n        Songs.push(Song(songCount,_title,_price,msg.sender,false));\n        songs[songCount] = Song(songCount,_title,_price,msg.sender,false);\n        emit SongRegistered(songCount,_title,_price,msg.sender,false);\n\n\n    }\n\n    //fetch number of songs\n    function getNumberOfSongs() external view returns(uint) {\n    // return the length of the song array\n    return Songs.length;\n    }\n    //function to buy a song\n    function purchaseSong(uint _id) payable public {\n        //get the song from the mapping\n        Song memory song = songs[_id];\n        //check whether there is at least one song\n        require(songCount > 0);\n        //check that the product id is valid\n        require(song.id > 0 &&  song.id <= songCount);\n        //check that the song has not been already purchased\n        require(!song.purchased,'Sorry! This song has already been purchased.');\n        //check that the ether sent is equal to the song price\n        require(msg.value == song.price, 'Insufficient funds or Too much! It must be exact!');\n        //get the seller/owner and store to variable owner\n        address payable owner = song.owner;\n        //check that the buyer is not the seller/owner\n          require(owner != msg.sender);\n        \n        //transfer ownership of the song to the buyer\n        song.owner = msg.sender;\n        //pay the owner \n        address(owner).transfer(msg.value);\n        //mark the song as purchased\n        song.purchased = true;\n        //update the purchased product in the mapping\n        songs[_id] = song;\n        buyers[_id] = msg.sender;\n    \n        //emit event to declare song has been purchased successfully\n        emit SongPurchased(songCount,song.title,song.price,msg.sender,true);\n\n    \n    }\n    \n    function getBuyers() external view returns(address[] memory) {\n    // return the length of the song array\n    return buyers;\n    }\n\n\n    \n\n}",
  "sourcePath": "/Users/kalubachikonde/Consensys/project 2.0/contracts/SongRegistry.sol",
  "compiler": {
    "name": "solc",
    "version": "0.5.0+commit.1d4f565a.Emscripten.clang"
  },
  "schemaVersion": "3.0.6",
  "updatedAt": "2020-01-16T17:16:26.277Z",
  "devdoc": {
    "methods": {}
  },
  "userdoc": {
    "methods": {}
  }
}